{
  "contractName": "PubNubTimeSheet",
  "abi": [
    {
      "constant": false,
      "inputs": [
        {
          "name": "id",
          "type": "uint256"
        },
        {
          "name": "addy",
          "type": "address"
        }
      ],
      "name": "setEmployee",
      "outputs": [],
      "payable": false,
      "stateMutability": "nonpayable",
      "type": "function"
    },
    {
      "constant": false,
      "inputs": [
        {
          "name": "time",
          "type": "uint256"
        },
        {
          "name": "id",
          "type": "uint256"
        }
      ],
      "name": "input",
      "outputs": [],
      "payable": false,
      "stateMutability": "nonpayable",
      "type": "function"
    },
    {
      "constant": true,
      "inputs": [
        {
          "name": "addy",
          "type": "address"
        }
      ],
      "name": "getMapping",
      "outputs": [
        {
          "name": "",
          "type": "uint256"
        }
      ],
      "payable": false,
      "stateMutability": "view",
      "type": "function"
    },
    {
      "constant": true,
      "inputs": [
        {
          "name": "id",
          "type": "uint256"
        }
      ],
      "name": "getHours",
      "outputs": [
        {
          "name": "",
          "type": "uint256"
        }
      ],
      "payable": false,
      "stateMutability": "view",
      "type": "function"
    }
  ],
  "bytecode": "0x608060405234801561001057600080fd5b50610277806100206000396000f300608060405260043610610062576000357c0100000000000000000000000000000000000000000000000000000000900463ffffffff16806366f4d9bc1461006757806372233c5e146100b45780637877f72d1461010b578063e389fd901461014c575b600080fd5b34801561007357600080fd5b506100b260048036038101908080359060200190929190803573ffffffffffffffffffffffffffffffffffffffff169060200190929190505050610183565b005b3480156100c057600080fd5b506100f5600480360381019080803573ffffffffffffffffffffffffffffffffffffffff1690602001909291905050506101cb565b6040518082815260200191505060405180910390f35b34801561011757600080fd5b5061013660048036038101908080359060200190929190505050610214565b6040518082815260200191505060405180910390f35b34801561015857600080fd5b506101816004803603810190808035906020019092919080359060200190929190505050610230565b005b81600160008373ffffffffffffffffffffffffffffffffffffffff1673ffffffffffffffffffffffffffffffffffffffff168152602001908152602001600020819055505050565b6000600160008373ffffffffffffffffffffffffffffffffffffffff1673ffffffffffffffffffffffffffffffffffffffff168152602001908152602001600020549050919050565b6000806000838152602001908152602001600020549050919050565b816000808381526020019081526020016000208190555050505600a165627a7a7230582044e8993354809e56b2762bf61813c39aa7f1e68d84771696f20295e6642d2a790029",
  "source": "pragma solidity ^0.4.18;\n\ncontract PubNubTimeSheet{\n\n\n\tmapping (uint => uint) punchCard;\n\tmapping (address => uint) cardToEmployee;\n\n\n\t//initialize each employee address to their id #\n\tfunction setEmployee(uint id, address addy) public{\n\t\tcardToEmployee[addy] = id;\n\t}\n\n\t//Employee inputs amount of hours worked\n\tfunction input(uint time, uint id) public {\n\n\t//authenticate the employee\n\t//\trequire(cardToEmployee[id] == msg.sender);\n\n\t\tpunchCard[id] = time;\n\n\t  \n\t}\n\n\n\tfunction getMapping(address addy) public view returns (uint){\n\n\t\treturn cardToEmployee[addy];\n\t}\n\n\n\t//look up amount hours an employee has worked\n\tfunction getHours(uint id) public view returns (uint){\n\n\t\treturn punchCard[id];\n\t}\n\n\n\n}",
  "sourcePath": "/Users/camerona/Desktop/PubNub/DEMO/contracts/PubNubTimeSheet.sol",
  "compiler": {
    "name": "solc",
    "version": "0.4.23+commit.124ca40d.Emscripten.clang"
  },
  "schemaVersion": "2.0.0",
  "updatedAt": "2018-06-05T23:15:20.864Z"
}